:020000040800F2
:100000000050002071070008110700081D070008B4
:1000100023070008290700082F0700080000000038
:10002000000000000000000000000000350700088C
:1000300041070008000000004D07000859070008AC
:10004000B9070008B9070008B9070008B907000890
:10005000B9070008B9070008B9070008B907000880
:10006000B9070008B9070008B9070008B907000870
:10007000B9070008B9070008B9070008B907000860
:10008000B9070008B9070008B9070008B907000850
:10009000B9070008B9070008B9070008B907000840
:1000A000B9070008B9070008B9070008B907000830
:1000B000B9070008B9070008B9070008B907000820
:1000C000B9070008B9070008B9070008B907000810
:1000D000B9070008B9070008B9070008B907000800
:1000E000B9070008B9070008B907000800000000B8
:1000F0000000000000000000000000000000000000
:0C01000000000000000000005FF808F1A3
:10010C0010B5054C237833B9044B13B10448AFF345
:10011C0000800123237010BD0C00002000000000A3
:10012C003418000808B5034B1BB103490348AFF35F
:10013C00008008BD000000001000002034180008EA
:10014C0080B500AF01224021074800F0E8FD0122F4
:10015C004021054800F0E3FD01224021024800F057
:10016C00DEFD00BF80BD00BF000C014080B500AFBC
:10017C0000224021074800F0D2FD00224021054812
:10018C0000F0CDFD00224021024800F0C8FD00BF68
:10019C0080BD00BF000C014080B500AF0122802162
:1001AC00074800F0BCFD01228021054800F0B7FD96
:1001BC0001228021024800F0B2FD00BF80BD00BFCB
:1001CC00000C014080B500AF00228021074800F0F0
:1001DC00A6FD00228021054800F0A1FD002280210F
:1001EC00024800F09CFD00BF80BD00BF000C014028
:1001FC0080B500AFFFF7A4FFFFF7CEFFFFF7E2FFDC
:10020C00FFF7B4FF00BF80BD80B500AFFFF7AEFFB6
:10021C00FFF7D8FFFFF794FFFFF7BEFF00BF80BDCD
:10022C0080B584B000AF78600023FB7315E0FFF756
:10023C009DFF97F90F307A6813441B78012B02D17C
:10024C00FFF7AAFF01E0FFF7BDFFFFF779FF97F972
:10025C000F30DBB20133DBB2FB7397F90F30072B96
:10026C00E5DD00BF1037BD4680BD80B586B000AF60
:10027C00786007F10C0300221A605A600023FB75AA
:10028C0015E07B681B781A46FB7D42FA03F303F0FA
:10029C000103002B14BF01230023DAB2FB7D07F10D
:1002AC0018010B4403F80C2CFB7D0133FB75FB7D13
:1002BC00072BE6D9FFF79CFF07F10C031846FFF755
:1002CC00AFFFFFF753FFFFF73BFF00F079F800BFDC
:1002DC001837BD4680BD80B586B000AF0346396087
:1002EC00FB711346BB7107F10C0300221A605A60B4
:1002FC000023FB752BE00023BB7517E0FB7D3A68F0
:10030C0013441B781A46BB7D42FA03F303F0010336
:10031C00002B14BF01230023DAB2BB7D07F11801B7
:10032C000B4403F80C2CBB7D0133BB75BB7D072B39
:10033C00E4D907F10C031846FFF772FFFFF716FF1D
:10034C00FFF7FEFE00F03CF8FB7D0133FB75FA7DF8
:10035C00BB799A42CFD300BF1837BD4680BD000091
:10036C0080B586B000AF0346FB7107F1080300228D
:10037C001A605A609A60DA604023BB6000233B61CC
:10038C0002237B61FB79002B0BD0012B00D011E0F9
:10039C000023FB6007F108031946084800F04EFBE8
:1003AC0008E00123FB6007F108031946034800F03D
:1003BC0045FB00BF00BF1837BD4680BD001401408F
:1003CC0080B500AF0120FFF7CBFFFFF7CFFE02E0B7
:1003DC000020FFF7C5FF4021034800F089FC0346CD
:1003EC00002BF5D100BF80BD000C014080B584B05E
:1003FC0000AF00F0DDF900F03DF800F0AFF800F0D0
:10040C007FF8012240211A4800F089FC012280214A
:10041C00174800F084FC3B1D00221A605A601A81B8
:10042C0040233B713B1D1846FFF71FFFFFF7ECFE07
:10043C00C0233B713B1D1846FFF717FF7C233B7114
:10044C0079237B717C23BB710423FB713B1D04223C
:10045C0019460120FFF73FFFFFF7D6FE8F233B71B4
:10046C003B1D1846FFF701FFFFF7CEFEFEE700BF6E
:10047C00000C014080B590B000AF07F118032822A2
:10048C000021184601F0C8F93B1D00221A605A6081
:10049C009A60DA601A610123BB614FF48033FB610F
:1004AC0000233B620123BB6202237B634FF4803346
:1004BC00BB634FF4E013FB6307F11803184600F01D
:1004CC007FFD0346002B01D000F094F80F237B60D6
:1004DC000223BB600023FB604FF480633B6100236D
:1004EC007B613B1D0221184600F0EAFF0346002BFE
:1004FC0001D000F07FF800BF4037BD4680BD000042
:10050C0080B500AF124B134A1A60114B124A5A6055
:10051C000F4B00229A600E4B0022DA600C4B4FF40A
:10052C0080421A610A4B00225A61094B00229A61DF
:10053C00074B0022DA61064B00221A62044800F0D5
:10054C0007FC0346002B01D000F054F800BF80BD1F
:10055C002800002000540040A086010080B588B01F
:10056C0000AF07F1100300221A605A609A60DA603B
:10057C001E4B9B691D4A43F0200393611B4B9B69E7
:10058C0003F02003FB60FB68184B9B69174A43F090
:10059C0008039361154B9B6903F00803BB60BB68B0
:1005AC00124B9B69114A43F0040393610F4B9B69F7
:1005BC0003F004037B607B6801224FF40C610C4850
:1005CC0000F0ADFB4FF40C633B6101237B61002316
:1005DC00BB610223FB6107F110031946044800F0CC
:1005EC002DFA00BF2037BD4680BD00BF0010024071
:1005FC00000C014080B400AF00BFBD4680BC70470A
:10060C0080B485B000AF154B9B69144A43F00103CD
:10061C009361124B9B6903F00103BB60BB680F4BEA
:10062C00DB690E4A43F08053D3610C4BDB6903F05A
:10063C0080537B607B680A4B5B68FB60FB6823F034
:10064C00E063FB60FB6843F00073FB60044AFB68EB
:10065C00536000BF1437BD4680BC70470010024089
:10066C000000014080B58AB000AF786007F1140338
:10067C0000221A605A609A60DA607B681B681D4A17
:10068C00934232D11C4B9B691B4A43F00803936184
:10069C00194B9B6903F008033B613B694FF44073B2
:1006AC007B611223BB6103233B6207F114031946E0
:1006BC00124800F0C3F9124B5B687B627B6A43F013
:1006CC00E0637B627B6A43F002037B620C4A7B6AC9
:1006DC005360094BDB69084A43F40013D361064BA2
:1006EC00DB6903F40013FB60FB6800BF2837BD46D1
:1006FC0080BD00BF0054004000100240000C0140BF
:10070C000000014080B400AF00BFBD4680BC704704
:10071C0080B400AFFEE780B400AFFEE780B400AF5A
:10072C00FEE780B400AFFEE780B400AF00BFBD466B
:10073C0080BC704780B400AF00BFBD4680BC704722
:10074C0080B400AF00BFBD4680BC704780B500AF21
:10075C0000F074F800BF80BD80B400AF00BFBD4690
:10076C0080BC7047002103E00B4B5B5843500431B5
:10077C000A480B4B42189A42F6D30A4A02E000236D
:10078C0042F8043B084B9A42F9D3FFF7E5FF01F01E
:10079C001FF8FFF72BFE70478018000800000020A0
:1007AC000C0000200C00002080000020FEE7000060
:1007BC0080B500AF084B1B68074A43F01003136069
:1007CC00032000F007F9002000F008F8FFF718FFED
:1007DC000023184680BD00BF0020024080B582B0C7
:1007EC0000AF7860124B1A68124B1B7819464FF405
:1007FC007A73B3FBF1F3B2FBF3F3184600F011F983
:10080C000346002B01D001230EE07B680F2B0AD886
:10081C00002279684FF0FF3000F0E7F8064A7B6859
:10082C001360002300E0012318460837BD4680BD45
:10083C0000000020080000200400002080B400AF5D
:10084C00054B1B781A46054B1B681344034A13606F
:10085C0000BFBD4680BC7047080000207C00002013
:10086C0080B400AF024B1B681846BD4680BC704775
:10087C007C00002080B485B000AF78607B6803F00A
:10088C000703FB600C4BDB68BB60BA684FF6FF03D9
:10089C001340BB60FB681A02BB68134343F0BF6391
:1008AC0043F40033BB60044ABB68D36000BF143709
:1008BC00BD4680BC704700BF00ED00E080B400AFC7
:1008CC00044BDB681B0A03F007031846BD4680BCCB
:1008DC00704700BF00ED00E080B483B000AF03466A
:1008EC003960FB7197F90730002B0ADB3B68DAB2F1
:1008FC000C4997F907301201D2B20B4483F800234C
:10090C000AE03B68DAB20849FB7903F00F03043BB9
:10091C001201D2B20B441A7600BF0C37BD4680BC14
:10092C00704700BF00E100E000ED00E080B489B04A
:10093C0000AFF860B9607A60FB6803F00703FB61F5
:10094C00FB69C3F10703042B28BF0423BB61FB69BC
:10095C000433062B02D9FB69033B00E000237B61C7
:10096C004FF0FF32BB6902FA03F3DA43BB681A405B
:10097C007B699A404FF0FF317B6901FA03F3D9434D
:10098C007B680B40134318462437BD4680BC704728
:10099C0080B582B000AF78607B68013BB3F1807F9B
:1009AC0001D301230FE00A4A7B68013B53600F21FE
:1009BC004FF0FF30FFF790FF054B00229A60044B7D
:1009CC0007221A60002318460837BD4680BD00BFB9
:1009DC0010E000E080B582B000AF78607868FFF777
:1009EC0049FF00BF0837BD4680BD80B586B000AF5B
:1009FC000346B9607A60FB7300237B61FFF75EFFEF
:100A0C0078617A68B9687869FFF790FF024697F9C0
:100A1C000F3011461846FFF75FFF00BF1837BD4671
:100A2C0080BD80B582B000AF78607868FFF7B0FF0A
:100A3C00034618460837BD4680BD000080B48BB015
:100A4C0000AF7860396000237B6200233B6227E1B2
:100A5C0001227B6A02FA03F3FB613B681B68FA69AB
:100A6C001340BB61BA69FB699A4240F016813B683E
:100A7C005B68122B34D0122B0DD8022B2BD0022BEF
:100A8C0004D8002B31D0012B1CD048E0032B43D0D1
:100A9C00112B1BD043E0894A934226D0874A9342BC
:100AAC0006D8874A934220D0864A93421DD036E01E
:100ABC00854A934219D0854A934216D0844A934270
:100ACC0013D02CE03B68DB683B6228E03B68DB68BA
:100ADC0004333B6223E03B68DB6808333B621EE077
:100AEC003B68DB680C333B6219E03B689B68002B6E
:100AFC0002D104233B6212E03B689B68012B05D1B9
:100B0C0008233B627B68FA691A6108E008233B62A0
:100B1C007B68FA695A6102E000233B6200BFBB6943
:100B2C00FF2B01D87B6801E07B6804337B61BB69D8
:100B3C00FF2B02D87B6A9B0002E07B6A083B9B0080
:100B4C003B617B691A680F213B6901FA03F3DB43B4
:100B5C001A40396A3B6901FA03F31A437B691A603C
:100B6C003B685B6803F08053002B00F09680594B78
:100B7C009B69584A43F001039361564B9B6903F000
:100B8C000103BB60BB68544A7B6A9B08023352F872
:100B9C002330FB607B6A03F003039B000F2202FAF5
:100BAC0003F3DB43FA681340FB607B684B4A9342C8
:100BBC0013D07B684A4A93420DD07B68494A9342D2
:100BCC0007D07B68484A934201D1032306E00423F3
:100BDC0004E0022302E0012300E000237A6A02F021
:100BEC00030292009340FA681343FB603A497B6A14
:100BFC009B080233FA6841F823203B685B6803F4D6
:100C0C008033002B06D0394B1A683849BB69134323
:100C1C000B6006E0354B1A68BB69DB433349134064
:100C2C000B603B685B6803F40033002B06D02F4B42
:100C3C005A682E49BB6913434B6006E02B4B5A682C
:100C4C00BB69DB43294913404B603B685B6803F489
:100C5C008013002B06D0254B9A682449BB6913439B
:100C6C008B6006E0214B9A68BB69DB431F4913403C
:100C7C008B603B685B6803F40013002B06D01B4BA6
:100C8C00DA681A49BB691343CB6006E0174BDA6884
:100C9C00BB69DB4315491340CB607B6A01337B6234
:100CAC003B681A687B6A22FA03F3002B7FF4D0AE00
:100CBC0000BF2C37BD4680BC704700BF0000211020
:100CCC000000111000001210000031100000321052
:100CDC0000002210001002400000014000080140FA
:100CEC00000C0140001001400014014000040140C0
:100CFC0080B485B000AF78600B467B807B689A68C7
:100D0C007B881340002B02D00123FB7301E00023EE
:100D1C00FB73FB7B18461437BD4680BC704780B410
:100D2C0083B000AF78600B467B8013467B707B787A
:100D3C00002B03D07A887B681A6103E07B881A0445
:100D4C007B681A6100BF0C37BD4680BC7047000041
:100D5C0080B584B000AF78607B68002B01D1012393
:100D6C001FE17B6893F83D30DBB2002B06D17B682A
:100D7C00002283F83C207868FFF774FC7B682422FF
:100D8C0083F83D207B681B681A687B681B6822F01F
:100D9C0001021A607B681B681A687B681B6842F446
:100DAC0000421A607B681B681A687B681B6822F417
:100DBC0000421A6000F0DAFCF8607B685B687B4AE2
:100DCC00934207D8FB687A4A934294BF01230023CD
:100DDC00DBB206E0FB68774A934294BF0123002301
:100DEC00DBB2002B01D00123DBE0FB68724AA2FBD3
:100DFC0003239B0CBB607B681B685B6823F03F0183
:100E0C007B681B68BA680A435A607B681B681B6A5C
:100E1C0023F03F017B685B68644A934202D8BB684D
:100E2C00013309E0BB684FF4967202FB03F3634A8B
:100E3C00A2FB03239B0901337A6812680B431362EC
:100E4C007B681B68DB6923F44F4222F0FF027B684E
:100E5C005B6856498B420DD8FB68591E7B685B68F2
:100E6C005B00B1FBF3F30133C3F30B03042B38BF6B
:100E7C0004234FE07B689B68002B11D1FB68581E44
:100E8C007B6859680B465B000B44B0FBF3F30133F2
:100E9C00C3F30B03002B0CBF01230023DBB212E0C6
:100EAC00FB68581E7B6859680B469B000B449900E5
:100EBC000B44B0FBF3F30133C3F30B03002B0CBF58
:100ECC0001230023DBB2002B01D0012322E07B683D
:100EDC009B68002B0ED1FB68581E7B6859680B462B
:100EEC005B000B44B0FBF3F30133C3F30B0343F48C
:100EFC0000430FE0FB68581E7B6859680B469B004B
:100F0C000B4499000B44B0FBF3F30133C3F30B0315
:100F1C0043F44043796809681343CB617B681B68D1
:100F2C001B6823F0C0017B68DA697B681B6A1A4373
:100F3C007B681B680A431A607B681B689B6823F4F8
:100F4C00034323F0FF037A6811697A68D26811436E
:100F5C007A6812680B4393607B681B68DB6823F02C
:100F6C00FF017B685A697B689B691A437B681B6825
:100F7C000A43DA607B681B681A687B681B6842F05E
:100F8C0001021A607B6800221A647B68202283F8B5
:100F9C003D207B6800221A637B68002283F83E2088
:100FAC00002318461037BD4680BD00BFA086010047
:100FBC007F841E00FF083D0083DE1B43D34D62106F
:100FCC0080B586B000AF78607B68002B01D101231F
:100FDC006CE27B681B6803F00103002B00F0878038
:100FEC00924B5B6803F00C03042B0CD08F4B5B68AB
:100FFC0003F00C03082B12D18C4B5B6803F4803389
:10100C00B3F5803F0BD1894B1B6803F40033002BE5
:10101C006CD07B685B68002B68D1012346E27B684F
:10102C005B68B3F5803F06D1804B1B687F4A43F465
:10103C00803313602EE07B685B68002B0CD17B4BFC
:10104C001B687A4A23F480331360784B1B68774A09
:10105C0023F4802313601DE07B685B68B3F5A02F3D
:10106C000CD1724B1B68714A43F4802313606F4B95
:10107C001B686E4A43F4803313600BE06B4B1B68A8
:10108C006A4A23F480331360684B1B68674A23F465
:10109C00802313607B685B68002B13D0FFF7E0FBA9
:1010AC00386108E0FFF7DCFB02463B69D31A642B7E
:1010BC0001D90323FAE15D4B1B6803F40033002BC9
:1010CC00F0D014E0FFF7CCFB386108E0FFF7C8FB69
:1010DC0002463B69D31A642B01D90323E6E1534B37
:1010EC001B6803F40033002BF0D100E000BF7B68D9
:1010FC001B6803F00203002B63D04C4B5B6803F0BE
:10110C000C03002B0BD0494B5B6803F00C03082B32
:10111C001CD1464B5B6803F48033002B16D1434B38
:10112C001B6803F00203002B05D07B681B69012BA5
:10113C0001D00123BAE13D4B1B6823F0F8027B6818
:10114C005B69DB00394913430B603AE07B681B6930
:10115C00002B20D0364B01221A60FFF781FB38613F
:10116C0008E0FFF77DFB02463B69D31A022B01D93D
:10117C0003239BE12D4B1B6803F00203002BF0D0E3
:10118C002A4B1B6823F0F8027B685B69DB0027495C
:10119C0013430B6015E0264B00221A60FFF760FB2F
:1011AC00386108E0FFF75CFB02463B69D31A022B5F
:1011BC0001D903237AE11D4B1B6803F00203002BBA
:1011CC00F0D17B681B6803F00803002B3AD07B68D6
:1011DC009B69002B19D0174B01221A60FFF740FBBB
:1011EC00386108E0FFF73CFB02463B69D31A022B3F
:1011FC0001D903235AE10D4B5B6A03F00203002B68
:10120C00F0D0012000F0C6FA1CE00A4B00221A6054
:10121C00FFF726FB38610FE0FFF722FB02463B6924
:10122C00D31A022B08D9032340E100BF001002405F
:10123C0000004242800442429E4B5B6A03F0020370
:10124C00002BE9D17B681B6803F00403002B00F032
:10125C00A6800023FB75974BDB6903F08053002BB2
:10126C000DD1944BDB69934A43F08053D361914B7E
:10127C00DB6903F08053BB60BB680123FB758E4BAD
:10128C001B6803F48073002B18D18B4B1B688A4AA4
:10129C0043F480731360FFF7E3FA386108E0FFF75B
:1012AC00DFFA02463B69D31A642B01D90323FDE014
:1012BC00814B1B6803F48073002BF0D07B68DB68D8
:1012CC00012B06D17B4B1B6A7A4A43F00103136254
:1012DC002DE07B68DB68002B0CD1764B1B6A754AC2
:1012EC0023F001031362734B1B6A724A23F004034D
:1012FC0013621CE07B68DB68052B0CD16D4B1B6A01
:10130C006C4A43F0040313626A4B1B6A694A43F04C
:10131C00010313620BE0674B1B6A664A23F001035F
:10132C001362644B1B6A634A23F0040313627B68E9
:10133C00DB68002B15D0FFF793FA38610AE0FFF752
:10134C008FFA02463B69D31A41F28832934201D993
:10135C000323ABE0574B1B6A03F00203002BEED0C8
:10136C0014E0FFF77DFA38610AE0FFF779FA0246DC
:10137C003B69D31A41F28832934201D9032395E099
:10138C004C4B1B6A03F00203002BEED1FB7D012BAF
:10139C0005D1484BDB69474A23F08053D3617B6806
:1013AC00DB69002B00F08180424B5B6803F00C037F
:1013BC00082B61D07B68DB69022B46D13F4B0022A6
:1013CC001A60FFF74DFA386108E0FFF749FA024658
:1013DC003B69D31A022B01D9032367E0354B1B68F9
:1013EC0003F00073002BF0D17B681B6AB3F5803FD0
:1013FC0008D1304B5B6823F400327B689B682D4925
:10140C0013434B602B4B5B6823F474127B68196A93
:10141C007B685B6A0B43274913434B60274B0122C4
:10142C001A60FFF71DFA386108E0FFF719FA024657
:10143C003B69D31A022B01D9032337E01D4B1B68E0
:10144C0003F00073002BF0D02FE01C4B00221A602D
:10145C00FFF706FA386108E0FFF702FA02463B692B
:10146C00D31A022B01D9032320E0124B1B6803F083
:10147C000073002BF0D118E07B68DB69012B01D1E4
:10148C00012313E00B4B5B68FB60FB6803F48032B9
:10149C007B681B6A9A4206D1FB6803F470127B6866
:1014AC005B6A9A4201D0012300E0002318461837EA
:1014BC00BD4680BD001002400070004060004242FA
:1014CC0080B584B000AF786039607B68002B01D1A7
:1014DC000123D0E06A4B1B6803F007033A689A4279
:1014EC0010D9674B1B6823F0070265493B6813430F
:1014FC000B60634B1B6803F007033A689A4201D0F8
:10150C000123B8E07B681B6803F00203002B20D09A
:10151C007B681B6803F00403002B05D0594B5B68F8
:10152C00584A43F4E06353607B681B6803F008037C
:10153C00002B05D0534B5B68524A43F46053536005
:10154C00504B5B6823F0F0027B689B684D4913435A
:10155C004B607B681B6803F00103002B40D07B6859
:10156C005B68012B07D1474B1B6803F40033002B3E
:10157C0015D101237FE07B685B68022B07D1414BBF
:10158C001B6803F00073002B09D1012373E03D4B62
:10159C001B6803F00203002B01D101236BE0394BD4
:1015AC005B6823F003027B685B68364913434B602E
:1015BC00FFF756F9F8600AE0FFF752F90246FB68AC
:1015CC00D31A41F28832934201D9032353E02D4BB5
:1015DC005B6803F00C027B685B689B009A42EBD162
:1015EC00274B1B6803F007033A689A4210D2244B2E
:1015FC001B6823F0070222493B6813430B60204B06
:10160C001B6803F007033A689A4201D0012332E0C9
:10161C007B681B6803F00403002B08D0194B5B6834
:10162C0023F4E0627B68DB68164913434B607B68EC
:10163C001B6803F00803002B09D0124B5B6823F4E2
:10164C0060527B681B69DB000E4913434B6000F052
:10165C0021F801460B4B5B681B0903F00F030A4A88
:10166C00D35C21FA03F3094A1360094B1B68184633
:10167C00FFF7B4F8002318461037BD4680BD00BFF5
:10168C0000200240001002406018000800000020FA
:10169C000400002090B48AB000AF2A4B3C1D0FCB45
:1016AC0084E80F00284B1B883B800023FB61002340
:1016BC00BB6100237B6200237B6100233B62234BD5
:1016CC005B68FB61FB6903F00C03042B02D0082B55
:1016DC0003D02DE01E4B3B622DE0FB699B0C03F00D
:1016EC000F0307F12802134413F8243C7B61FB69B8
:1016FC0003F48033002B13D0144B5B685B0C03F0AA
:10170C00010307F12802134413F8283CBB617B69E1
:10171C000F4A02FB03F2BB69B2FBF3F37B6204E0FA
:10172C007B690C4A02FB03F37B627B6A3B6202E03F
:10173C00074B3B6200BF3B6A18462837BD4690BC3E
:10174C00704700BF4C1800085C18000800100240DD
:10175C0000127A0000093D0080B400AF024B1B68F8
:10176C001846BD4680BC70470000002080B500AF15
:10177C00FFF7F2FF0146054B5B681B0A03F00703FA
:10178C00034AD35C21FA03F3184680BD00100240D3
:10179C007018000880B485B000AF78600A4B1B68E5
:1017AC000A4AA2FB03235B0A7A6802FB03F3FB6081
:1017BC0000BFFB685A1EFA60002BF9D100BF14372A
:1017CC00BD4680BC704700BF00000020D34D6210A6
:1017DC0070B500250C4E0D4CA41BA410A54209D1CC
:1017EC0000F022F800250A4E0A4CA41BA410A542B6
:1017FC0005D170BD56F8253098470135EEE756F8FF
:10180C00253098470135F2E7781800087818000859
:10181C00781800087C18000803460244934200D153
:10182C00704703F8011BF9E7F8B500BFF8BC08BC1A
:10183C009E467047F8B500BFF8BC08BC9E46704782
:10184C0002030405060708090A0B0C0D0E0F1010F5
:10185C00010200000000000000000000010203046F
:0C186C0006070809000000000102030448
:041878003101000832
:04187C000D01000852
:0C1880000024F400100000000100000033
:040000050800077177
:00000001FF
